{
  "contractName": "Voting",
  "abi": [
    {
      "constant": true,
      "inputs": [
        {
          "name": "",
          "type": "uint256"
        }
      ],
      "name": "candidateList",
      "outputs": [
        {
          "name": "",
          "type": "bytes32"
        }
      ],
      "payable": false,
      "stateMutability": "view",
      "type": "function"
    },
    {
      "inputs": [
        {
          "name": "candidateNames",
          "type": "bytes32[]"
        }
      ],
      "payable": false,
      "stateMutability": "nonpayable",
      "type": "constructor"
    },
    {
      "constant": true,
      "inputs": [
        {
          "name": "candidate",
          "type": "bytes32"
        }
      ],
      "name": "totalVotesFor",
      "outputs": [
        {
          "name": "",
          "type": "uint256"
        }
      ],
      "payable": false,
      "stateMutability": "view",
      "type": "function"
    },
    {
      "constant": false,
      "inputs": [
        {
          "name": "candidate",
          "type": "bytes32"
        }
      ],
      "name": "voteForCandidate",
      "outputs": [],
      "payable": false,
      "stateMutability": "nonpayable",
      "type": "function"
    },
    {
      "constant": true,
      "inputs": [
        {
          "name": "candidate",
          "type": "bytes32"
        }
      ],
      "name": "validCandidate",
      "outputs": [
        {
          "name": "",
          "type": "bool"
        }
      ],
      "payable": false,
      "stateMutability": "view",
      "type": "function"
    }
  ],
  "bytecode": "0x608060405234801561001057600080fd5b50604051610368380380610368833981018060405281019080805182019291905050508060019080519060200190610049929190610050565b50506100c8565b828054828255906000526020600020908101928215610092579160200282015b82811115610091578251829060001916905591602001919060010190610070565b5b50905061009f91906100a3565b5090565b6100c591905b808211156100c15760008160009055506001016100a9565b5090565b90565b610291806100d76000396000f300608060405260043610610062576000357c0100000000000000000000000000000000000000000000000000000000900463ffffffff1680632f265cf714610067578063392e6678146100ac578063b13c744b146100f5578063cc9ab2671461013e575b600080fd5b34801561007357600080fd5b50610096600480360381019080803560001916906020019092919050505061016f565b6040518082815260200191505060405180910390f35b3480156100b857600080fd5b506100db60048036038101908080356000191690602001909291905050506101a7565b604051808215151515815260200191505060405180910390f35b34801561010157600080fd5b5061012060048036038101908080359060200190929190505050610202565b60405180826000191660001916815260200191505060405180910390f35b34801561014a57600080fd5b5061016d6004803603810190808035600019169060200190929190505050610225565b005b600061017a826101a7565b151561018557600080fd5b6000808360001916600019168152602001908152602001600020549050919050565b600080600090505b6001805490508110156101fb5782600019166001828154811015156101d057fe5b90600052602060002001546000191614156101ee57600191506101fc565b80806001019150506101af565b5b50919050565b60018181548110151561021157fe5b906000526020600020016000915090505481565b61022e816101a7565b151561023957600080fd5b6001600080836000191660001916815260200190815260200160002060008282540192505081905550505600a165627a7a72305820a82fa6deec10dd79a2ca7719578dee672d899e56c8c28cd02243e32aaf9308da0029",
  "source": "// SPDX-License-Identifier: MIT\r\npragma solidity >=0.4.21 <0.7.0;\r\n\r\ncontract Voting {\r\n    mapping(bytes32 => uint256) votesReceived;\r\n    bytes32[] public candidateList;\r\n\r\n    constructor(bytes32[] memory candidateNames) public {\r\n        candidateList = candidateNames;\r\n    }\r\n\r\n    function totalVotesFor(bytes32 candidate) public view returns (uint256) {\r\n        require(validCandidate(candidate));\r\n        return votesReceived[candidate];\r\n    }\r\n\r\n    function voteForCandidate(bytes32 candidate) public {\r\n        require(validCandidate(candidate));\r\n        votesReceived[candidate] += 1;\r\n    }\r\n\r\n    function validCandidate(bytes32 candidate) public view returns (bool) {\r\n        for (uint256 i = 0; i < candidateList.length; i++) {\r\n            if (candidateList[i] == candidate) {\r\n                return true;\r\n            }\r\n        }\r\n    }\r\n}\r\n",
  "sourcePath": "C:\\Users\\syusm\\OneDrive\\문서\\GitHub\\voting\\contracts\\Voting.sol",
  "compiler": {
    "name": "solc",
    "version": "0.4.25+commit.59dbf8f1.Emscripten.clang"
  },
  "schemaVersion": "2.0.2",
  "updatedAt": "2022-02-21T06:02:58.589Z"
}