{
  "contractName": "Voting",
  "abi": [
    {
      "inputs": [
        {
          "internalType": "bytes32[]",
          "name": "candidateNames",
          "type": "bytes32[]"
        }
      ],
      "stateMutability": "nonpayable",
      "type": "constructor"
    },
    {
      "inputs": [
        {
          "internalType": "uint256",
          "name": "",
          "type": "uint256"
        }
      ],
      "name": "candidateList",
      "outputs": [
        {
          "internalType": "bytes32",
          "name": "",
          "type": "bytes32"
        }
      ],
      "stateMutability": "view",
      "type": "function",
      "constant": true
    },
    {
      "inputs": [
        {
          "internalType": "bytes32",
          "name": "candidate",
          "type": "bytes32"
        }
      ],
      "name": "totalVotesFor",
      "outputs": [
        {
          "internalType": "uint256",
          "name": "",
          "type": "uint256"
        }
      ],
      "stateMutability": "view",
      "type": "function",
      "constant": true
    },
    {
      "inputs": [
        {
          "internalType": "bytes32",
          "name": "candidate",
          "type": "bytes32"
        }
      ],
      "name": "voteForCandidate",
      "outputs": [],
      "stateMutability": "nonpayable",
      "type": "function"
    },
    {
      "inputs": [
        {
          "internalType": "bytes32",
          "name": "candidate",
          "type": "bytes32"
        }
      ],
      "name": "validCandidate",
      "outputs": [
        {
          "internalType": "bool",
          "name": "",
          "type": "bool"
        }
      ],
      "stateMutability": "view",
      "type": "function",
      "constant": true
    }
  ],
  "bytecode": "0x608060405234801561001057600080fd5b506040516103b43803806103b48339818101604052602081101561003357600080fd5b810190808051604051939291908464010000000082111561005357600080fd5b8382019150602082018581111561006957600080fd5b825186602082028301116401000000008211171561008657600080fd5b8083526020830192505050908051906020019060200280838360005b838110156100bd5780820151818401526020810190506100a2565b5050505090500160405250505080600190805190602001906100e09291906100e7565b5050610151565b828054828255906000526020600020908101928215610123579160200282015b82811115610122578251825591602001919060010190610107565b5b5090506101309190610134565b5090565b5b8082111561014d576000816000905550600101610135565b5090565b610254806101606000396000f3fe608060405234801561001057600080fd5b506004361061004c5760003560e01c80632f265cf714610051578063392e667814610093578063b13c744b146100d7578063cc9ab26714610119575b600080fd5b61007d6004803603602081101561006757600080fd5b8101908080359060200190929190505050610147565b6040518082815260200191505060405180910390f35b6100bf600480360360208110156100a957600080fd5b8101908080359060200190929190505050610175565b60405180821515815260200191505060405180910390f35b610103600480360360208110156100ed57600080fd5b81019080803590602001909291905050506101c7565b6040518082815260200191505060405180910390f35b6101456004803603602081101561012f57600080fd5b81019080803590602001909291905050506101e8565b005b600061015282610175565b61015b57600080fd5b600080838152602001908152602001600020549050919050565b600080600090505b6001805490508110156101c057826001828154811061019857fe5b906000526020600020015414156101b35760019150506101c2565b808060010191505061017d565b505b919050565b600181815481106101d457fe5b906000526020600020016000915090505481565b6101f181610175565b6101fa57600080fd5b6001600080838152602001908152602001600020600082825401925050819055505056fea2646970667358221220cc2adf0d5e0acbc3142d212ddb2266269b92fe950040b953e0dfb12f8ca6831664736f6c63430007030033",
  "immutableReferences": {},
  "source": "pragma solidity >=0.7.0 <0.8.0;\n\ncontract Voting {\n    mapping(bytes32 => uint256) votesReceived;\n    bytes32[] public candidateList;\n\n    constructor(bytes32[] memory candidateNames) public {\n        candidateList = candidateNames;\n    }\n\n    function totalVotesFor(bytes32 candidate) public view returns (uint256) {\n        require(validCandidate(candidate));\n        return votesReceived[candidate];\n    }\n\n    function voteForCandidate(bytes32 candidate) public {\n        require(validCandidate(candidate));\n        votesReceived[candidate] += 1;\n    }\n\n    function validCandidate(bytes32 candidate) public view returns (bool) {\n        for (uint256 i = 0; i < candidateList.length; i++) {\n            if (candidateList[i] == candidate) {\n                return true;\n            }\n        }\n    }\n}\n",
  "sourcePath": "/Users/hangyeonghyeon/Downloads/blockchain-vote-master/contracts/Voting.sol",
  "compiler": {
    "name": "solc",
    "version": "0.7.3+commit.9bfce1f6.Emscripten.clang"
  },
  "schemaVersion": "3.4.4",
  "updatedAt": "2022-02-18T07:16:34.773Z",
  "networkType": "ethereum",
  "devdoc": {
    "kind": "dev",
    "methods": {},
    "version": 1
  },
  "userdoc": {
    "kind": "user",
    "methods": {},
    "version": 1
  }
}